:020000040800F2
:10000000B8360020E1010008991700081512000811
:1000100089140008E50D000809240008000000000C
:10002000000000000000000000000000490100087E
:1000300049100008000000008D010008D1200008D0
:10004000FB010008FB010008FB010008FB010008A0
:10005000FB010008FB010008FB010008FB01000890
:10006000FB010008FB010008FB010008FB01000880
:10007000FB010008FB010008FB010008FB01000870
:10008000FB010008FB010008FB010008FB01000860
:10009000FB010008FB010008FB010008FB01000850
:1000A000FB010008FB010008FB010008FB01000840
:1000B0009D210008FB010008FB010008FB0100086E
:1000C000FB010008FB010008FB010008FB01000820
:1000D000FB010008FB010008FB010008FB01000810
:1000E000FB010008FB010008FB010008FB01000800
:1000F000FB010008FB010008FB010008FB010008F0
:10010000FB010008FB010008FB010008FB010008DF
:10011000FB010008FB010008FB010008FB010008CF
:10012000FB010008FB010008FB010008FB010008BF
:10013000DFF810D000F03EFB00480047CD2F00084C
:10014000AFF30080B8360020224B19680868B0E889
:10015000F00F80F30988BFF36F8F4FF0000080F33A
:1001600011884EF00D0E7047000000000648006830
:10017000006880F3088862B661B6BFF34F8FBFF3A3
:100180006F8F00DF00BF00BF08ED00E0EFF30980D4
:10019000BFF36F8F0F4B1A6820E9F00F106008B59E
:1001A0004FF0BF0080F31188BFF34F8FBFF36F8F05
:1001B00003F07EFB4FF0000080F31188BDE808409B
:1001C00019680868B0E8F00F80F30988BFF36F8FF3
:1001D000704700BF90090020EFF3058070470000D2
:1001E0000648804706480047FEE7FEE7FEE7FEE7D1
:1001F000FEE7FEE7FEE7FEE7FEE7FEE7E120000898
:100200003101000880EA010210B502F0004340000D
:1002100022D04A001FD0010E01EB1261C0F356003C
:10022000C2F3560240F4000042F40002A0FB022098
:1002300000047F39140400D0401C50EA124001D45D
:100240004000491EC2B20C0604EBD010401C40080E
:10025000802A02D003E0002010BD20F00100002918
:1002600000DA0020184310BD30B480EA010202F029
:10027000004530F0004221F0004013D090B1C30D92
:10028000D40DC2F31601C0F31600E41A41F40001C4
:1002900040F400027D34914201D3641C00E0490027
:1002A000002C02DA30BC002070474FF4000000231D
:1002B000914201D3891A034340084FEA4101F7D123
:1002C00051B1914202D14FF0004105E002D24FF00E
:1002D000010101E06FF0010103EBC450284430BC80
:1002E00000F078B896230022114600F07CB800F0A8
:1002F000004220F00040C10DC0F3160040F40000A1
:100300007F2901DA00207047962903DCC1F19601AC
:10031000C84001E096398840002AF4D04042704736
:1003200000F0004230F000400AD0C10D01F56071CC
:10033000C0F3160042EA0151C2084007114370475A
:1003400000200146704730B50B46014600202022B0
:10035000012409E021FA02F59D4205D303FA02F5D2
:10036000491B04FA02F52844151EA2F10102F1DC32
:1003700030BD2DE9F05F0546002092469B46884639
:100380000646814640241BE0284641464746224611
:1003900000F031FA53465A46C01A914110D3114623
:1003A0001846224600F018FA2D1A67EB01084F464E
:1003B00022460120002100F00FFA17EB00094E4100
:1003C000201EA4F10104DFDC484631462A4643469C
:1003D000BDE8F09F0029A8BF7047401C490008BF36
:1003E00020F00100704710B4B0FA80FC00FA0CF065
:1003F00050EA010404BF10BC704749B1CCF120049D
:1004000021FA04F411FA0CF118BF01212143084329
:10041000A3EB0C01CB1D4FEA00614FEA102042BF55
:10042000002010BC704700EBC35010440029A4BF4B
:1004300010BC7047401C490008BF20F0010010BCF0
:1004400070472DE9FE4F804681EA0300C00F0C463D
:10045000009021F0004123F00045B8EB0200A941D3
:1004600005D24046214690461C460B46024623F0E4
:100470000040104347D0270DC7F30A00C3F30A51C9
:100480000290401A019040286BDAC3F3130040F445
:10049000801B0098924620B10023D2EB030A63EB45
:1004A0000B0B01985946C0F14002504600F094F9F8
:1004B00006460D4650465946019A00F0ACF910EB3D
:1004C00008006141002487EA115284EAE7731A4365
:1004D00040D0009A62B3019A012A4FEA075215DC14
:1004E000001B61EB02014FF0004202EA0752CDE926
:1004F0000042001C41F5801132462B4600F0ACF959
:1005000003B0BDE8F08F40462146F9E7001B61EBE0
:100510000201001C41F5801300185B412018A2F570
:10052000001747EB030140EAD570B6196D4111E0A1
:100530006D084FEA360645EAC0754FEA0752001BC0
:1005400061EB0201001C41F5801149084FEA3000BF
:100550000019514132462B4603B0BDE8F04F00F080
:100560006CB90098012240000023D0EB020263EB3B
:10057000E073009821464FEAE074B8EB000061EBAD
:100580000401E9E783F000435BE781F0004158E7AD
:100590002DE9FE4F81EA030404F0004421F00041FC
:1005A00000944FF0000B23F0004350EA01045ED0AA
:1005B00052EA03045BD0C3F30A54C1F30A552C4436
:1005C000A4F2F3340194A0FB0254C1F3130141F4EB
:1005D0008011C3F3130343F4801301FB024400FBB7
:1005E000034E840A970A44EA815447EA8357A4FBDE
:1005F000076802958D0A05FB07854FEA932C04FBDB
:100600000C542705029D4FEA065847EA1637B5EB0A
:1006100008056EEB070C870E920E47EA811742EA37
:100620008312A7FB0201B6EB0B0164EB00042B0D58
:1006300043EA0C335E1844EB1C50DA465146E7FBA4
:100640000201C5F313044FEA0B3343EA14534FEA94
:100650000432019C43EA0603A4F10C040294009CBA
:10066000CDE900B400F0F8F803B0BDE8F08F002049
:100670000146F9E72DE9F04D81EA030404F0004B4F
:1006800021F0004514464FF0000A23F0004150EAE3
:10069000050220D054EA01021DD0C5F30A570246D4
:1006A000C5F31303C1F31300C1F30A5640F48015D8
:1006B00043F48013A7EB0608101BD64608F2FD385A
:1006C00073EB050002D308F1010801E092185B41C9
:1006D000B8F1000F03DA00200146BDE8F08D0020DC
:1006E0004FF48011064684460EE0171B73EB050796
:1006F00005D3121B63EB050306434CEA010C4908C2
:100700004FEA300092185B4150EA0107EDD152EAFE
:10071000030012D082EA040083EA0501084305D0F1
:10072000101BAB4106D20122002306E000224FF04D
:10073000004302E06FF0010253101AEB06004CEB8D
:10074000085110EB0A0041EB0B01BDE8F04D00F041
:1007500074B8C1F30A52C1F3130140F2FF3341F4FC
:1007600080119A4202DA00200146704740F233437A
:100770009A42A2F2334202DC524200F03CB800F04E
:100780002BB8000030B5041E71F1000404DB4FF0FB
:100790000044404264EB0101141E73F1000405DBC8
:1007A0001C464FF00043524263EB0403994208BFDA
:1007B000904230BD064C074D06E0E06840F0010372
:1007C00094E8070098471034AC42F6D3FFF7B4FC26
:1007D000AC450008CC450008202A04DB203A00FA8A
:1007E00002F1002070479140C2F1200320FA03F388
:1007F000194390407047202A04DB203A21FA02F086
:100800000021704721FA02F3D040C2F1200291404A
:10081000084319467047202A06DBCB17203A41FAD5
:1008200002F043EAE07306E041FA02F3D040C2F17D
:100830002002914008431946704710B5141E73F109
:10084000000408DA401C41F1000192185B411A4390
:1008500001D120F0010010BD2DE9F04D92469B46DC
:1008600011B1B1FA81F202E0B0FA80F22032904682
:10087000FFF7B2FF04460F4640EA0A0041EA0B01C7
:1008800053465A46084313D0114653EA010019D083
:10089000C8F140025046FFF7AEFF05460E465046EF
:1008A00059464246FFF798FF084305D0012004E06F
:1008B00020463946BDE8F08D0020054346EAE07643
:1008C0002C4337430A986305E40AA0EB0800002292
:1008D000FD0A44EA47540A3002D500200146E9E700
:1008E000010510196941DDE9084500196941BDE8B4
:1008F000F04DA2E770B58C1810F8015B15F00703F6
:1009000001D110F8013B2A1106D110F8012B03E0A8
:1009100010F8016B01F8016B5B1EF9D12B0705D4B0
:100920000023521E0DD401F8013BFAE710F8013BF9
:10093000CB1A921C03E013F8015B01F8015B521E15
:10094000F9D5A142D8D3002070BD21B1826842F010
:100950000102826003E0826822F001028260704737
:1009600010B504461248844208D10121401501F017
:1009700007FA0021601501F003FA17E00D488442E0
:1009800008D10121001501F0FBF90021201501F02B
:10099000F7F90BE00848844208D10121C80301F0AF
:1009A000EFF900214FF4004001F0EAF910BD00001A
:1009B0000024014000280140003C01400146002085
:1009C0008A6802F004020AB1012000E000207047AA
:1009D0000146C86C80B270470246002013680B4085
:1009E0000BB1012000E000207047014600208A681A
:1009F00002F008020AB1012000E000207047000068
:100A000030B502460020002350680F4C20400D797D
:100A10000C6844EA05242043506090680B4C204049
:100A2000D1E902542C434D7944EA450420439060B7
:100A3000D06A20F470000C7C641EE4B2234340EAC8
:100A40000350D06230BD0000FFFEF0FFFDF7F1FF64
:100A5000F0B504460D4600200021092D11DDE068A7
:100A6000A5F10A0606EB4607072606FA07F18843B2
:100A7000A5F10A0606EB460603FA06F10843E06014
:100A80000CE0206905EB4507072606FA07F18843C5
:100A900005EB450603FA06F108432061072A0FDA41
:100AA000606B561E06EB86071F2606FA07F1884381
:100AB000561E06EB860605FA06F10843606322E03F
:100AC0000D2A0FDA206BD61F06EB86071F2606FAC3
:100AD00007F18843D61F06EB860605FA06F10843A0
:100AE000206310E0E06AA2F10D0606EB86071F26E0
:100AF00006FA07F18843A2F10D0606EB860605FA11
:100B000006F10843E062F0BD816841F008018160B0
:100B1000704721B1826842F4A002826003E08268DB
:100B200022F4A00282607047816841F00401816074
:100B30007047000000B587B00121042001F010F9D2
:100B40000121480201F00CF9002001F0EDF801202C
:100B5000ADF8180000208DF81B0006A9194800F018
:100B6000A9FA1948FFF7FCFE002001908DF8080053
:100B70008DF809004FF460200390002004900120BC
:100B80008DF8140001A91048FFF73AFF01210E4823
:100B9000FFF7DBFE0C48FFF7B7FF00BF0A48FFF77F
:100BA00024FF0028FAD10848FFF7BEFF00BF06481F
:100BB000FFF704FF0028FAD101210348FFF7A9FF3E
:100BC00007B000BD000801400024014008B53EE028
:100BD00000F008FB1E49088008460088FFF782FBEA
:100BE00005461C49FFF70EFB04464FF08B41FFF70B
:100BF0003BFB194908601948006828B34FF0FF30E3
:100C000000231A46012100901448006802F0E6FE15
:100C100011480068FFF784FB044622460B4610A0EB
:100C200001F06EFC022317A20121142001F006F846
:100C300009480068FFF75BFB0446022322460121B6
:100C40003C2000F00FFF02E00A2002F02FFDBFE77A
:100C50003000002000404E452000002018000020F9
:100C6000566F6C74616765206D6561737572656D33
:100C7000656E74206973203A202566206D560D0A32
:100C80000000000074656D703A0000001CB5044659
:100C900002F04EFE1D4908601D4802210023C822B3
:100CA000CDE900101BA11D4802F032FF1C480221B3
:100CB00000234FF49672CDE900101AA11B4802F0F0
:100CC00027FF1B48012100234FF49672CDE9001045
:100CD00018A11D4802F01CFF1C48022100234FF4FC
:100CE000FA72CDE900101AA11C4802F011FF1C484D
:100CF000022100236422CDE900101AA11E4802F04F
:100D000007FF1E48006802F0EBFC1CBD1800002025
:100D1000040000204C65645461736B0041140008AA
:100D2000080000204164635461736B00CD0B000820
:100D30000C000020646973706C61795F6C6F676F81
:100D40007461736B00000000892E00081000002001
:100D50004D656E755461736B000000008D140008C2
:100D60001400002054656D705F6473313862323056
:100D70005461736B00000000BD22000800000020D9
:100D800070B5044600251448006820F470601249CC
:100D900008600846006840F44070086000BF16E034
:100DA00000200E490860022002F03EF804F0010025
:100DB0000B49C1F888013C2002F036F801200749B0
:100DC00008606410022002F02FF8681CC5B2082DDC
:100DD000E6DB002070BD00000008014088012142D0
:100DE0000000214200BFFEE710B500F00BF900F053
:100DF00001F810BD10B500241B48006820F4706095
:100E0000194908600846006840F40060086004E082
:100E1000012002F009F8601CC4B21448006808B14F
:100E2000F02CF5DBF02C01DD012010BD00240E4874
:100E3000006820F470600C4908600846006840F4BF
:100E40000060086004E0012001F0EEFF601CC4B205
:100E50000648006808B9F02CF5DBF02C01DD022013
:100E6000E3E70020E1E7000000080140080121421B
:100E70002DE9F0410024FFF7B7FFCC20FFF780FFFA
:100E80004420FFF77DFF00BF00F07CF8FF28FBD176
:100E9000FFF7AAFFCC20FFF773FFBE20FFF770FF1C
:100EA00000F070F8804600F06DF8054648EA052429
:100EB000261104F00F073A46314603A001F020FB4B
:100EC0002046BDE8F0810000CEC2B6C83A25642EA7
:100ED000256420A1E6200A0008B50121042000F0C5
:100EE0003FFF0420ADF8000010208DF80300032020
:100EF0008DF8020069460E4800F0DCF804210C4829
:100F000000F06EF9FFF770FF20B1012806D002282B
:100F10000CD107E007A001F0F3FA07E00AA001F006
:100F2000EFFA03E010A001F0EBFA00BF00BF08BD2C
:100F300000080140445331384232305F496E6974D1
:100F4000204F4B210A00000044533138423230C94F
:100F5000E8B1B8CFECD3A6B8B4CEBBD0C5BAC5CA39
:100F6000A7B0DCA3A10A000044533138423230C993
:100F7000E8B1B8CACDB7C5D7DCCFDFCAA7B0DCA30C
:100F8000A10A000070B50024002531E01A4800686D
:100F900020F47060184908600846006840F440700A
:100FA0000860002015490860022001F03DFF012083
:100FB0001349C1F888011048006820F470600E4998
:100FC00008600846006840F4006008600A2001F0EC
:100FD0002BFF641009488038006808B144F0800491
:100FE0003C2001F021FF012004490860681CC5B2C3
:100FF000082DCBDB204670BD00080140880121424E
:101000000000214210B50D48006820F470600B49C3
:1010100008600846006840F44070086000200849F5
:10102000086040F2EE2001F0FFFE01200549C1F802
:1010300088010F2001F0F8FE10BD000000080140FB
:1010400088012142000021427047000008B50121BB
:10105000042000F085FE0220ADF8000003208DF88A
:10106000020010208DF803006946114800F022F8B4
:10107000022001F059FF4FF44070ADF8000003204A
:101080008DF8020048208DF803006946084800F0FA
:1010900011F83C20ADF8000003208DF80200482034
:1010A0008DF803006946024800F004F808BD00000E
:1010B000000801402DE9F0410246002500260020ED
:1010C00000230024002791F803C00CF00F0591F8CD
:1010D00003C00CF0100CBCF1000F03D091F802C05B
:1010E0004CEA050591F800C0BCF1000F31D014683E
:1010F00000202BE04FF0010C0CFA00F3B1F800C017
:101100000CEA03069E4220D183004FF00F0C0CFA2C
:1011100003F7BC4305FA03FC4CEA040491F803C04E
:10112000BCF1280F06D14FF0010C0CFA00FCC2F8FC
:1011300014C00AE091F803C0BCF1480F05D14FF08C
:10114000010C0CFA00FCC2F810C0401C0828D1D3D6
:101150001460B1F800C0BCF1FF0F34DD546800200A
:101160002EE000F1080C4FF0010808FA0CF3B1F87A
:1011700000C00CEA03069E4221D183004FF00F0C01
:101180000CFA03F7BC4305FA03FC4CEA040491F89B
:1011900003C0BCF1280F05D100F1080C08FA0CF8C7
:1011A000C2F8148091F803C0BCF1480F07D100F1D8
:1011B000080C4FF0010808FA0CF8C2F81080401C27
:1011C0000828CED35460BDE8F08102460020936821
:1011D0000B400BB1012000E00020704741617047D7
:1011E0000161704710B50723012200210848FFF76D
:1011F0002FFC01210648FFF78CFC00BF02210448A8
:10120000FFF7EAFB0028F9D00148FFF7E1FB10BD2A
:101210000024014000BFFEE708B50121082000F0CE
:101220009FFDC020ADF8000010208DF803000320C2
:101230008DF8020069460448FFF73CFFC0210248D0
:10124000FFF7CEFF08BD0000000C014070B504465A
:101250001548006820F0704013490860084600688F
:1012600040F040500860002010490860002517E059
:10127000E0090E49091D08606006040E022001F015
:10128000D3FD01200A49C1F89801022001F0CCFDEC
:10129000002006490860022001F0C6FD681CC5B2A6
:1012A000082DE5DB70BD0000000C01409881214253
:1012B0000080214210B50F48006820F070400D49B1
:1012C00008600846006840F04050086001200A4964
:1012D00008600A49C1F89801042001F0A5FD00202A
:1012E00005490860042001F09FFD00200349C1F872
:1012F000980110BD000C01409C81214200802142D8
:1013000010B50F48006820F070400D49086008468D
:10131000006840F04050086000200A4908600A490F
:10132000C1F89C01042001F07FFD012005490860FF
:101330000549C1F89C01042001F076FD10BD0000B4
:10134000000C0140988121420080214210B5002408
:101350001448006820F07040124908600846006890
:1013600040F00040086001200F49086001F05CFD7A
:1013700001200E49C1F8980101F056FD07E0601CFC
:10138000C4B2FA2C03DDFFF7BBFF012010BD0648F5
:10139000803800680028F2D10349091F086000BFA7
:1013A000F4E70000000C01409C81214200802142B2
:1013B00070B52148006860B920480078202802D024
:1013C000302804D101E0062402E0042400E000BF3C
:1013D00010E019480068012801D100240AE01648ED
:1013E0000068022801D1022404E0134800680328A1
:1013F00000D104241148007805281BD00F4800783C
:10140000042817D00D480078102813D004F1B0013B
:10141000C8B201F049F8002001F046F8102001F0B0
:1014200043F8002504E0002001F054F8681CC5B220
:10143000142DF8DB70BD00002C0000201C000020E3
:1014400008B51EE00F480068C0B14FF0FF30002320
:101450001A46022100900B48006802F0BFFA0120F2
:1014600001F062FD4FF4FA7002F020F9022001F061
:101470005BFD4FF4FA7002F019F902E00A2002F065
:1014800015F9DFE71800002000BFFEE708B52AE1E4
:1014900001F05AFDFFF78CFF9348007810281AD10D
:1014A00092480823802200210090084600F0D8F9D5
:1014B0004FF480718E48FFF788FE30B14FF4007111
:1014C0008B48FFF782FE002804D12020864908704F
:1014D00000F0A6F904E184480078202864D10123B3
:1014E00084A20021142000F0A9FB012384A2194644
:1014F000002000F0A3FB012386A20221142000F0AB
:101500009DFB01237EA20321002000F097FB012315
:1015100083A20421142000F091FB012378A205216D
:10152000002000F08BFB012380A20621142000F094
:1015300085FB4FF400716E48FFF747FE0028C9D1C4
:101540007C48006828B900F06BF9302066490870C3
:10155000C6E07848006801280AD100F061F901214D
:101560007548006802F0F1F904205F490870B7E09F
:1015700070480068022805D100F052F910205A493D
:101580000870ADE000F04CF90520574908700223BF
:101590006AA21946142000F051FB02236AA204211A
:1015A000142000F04BFB9BE04F480078302870D1AE
:1015B00068480068F0B9012367A20021142000F0F8
:1015C0003DFB01234EA21946002000F037FB01230A
:1015D00065A20221142000F031FB012348A203215F
:1015E000002000F02BFB012363A20421142000F053
:1015F00025FB17E057480068012813D1012361A299
:101600000021142000F01AFB4FF400713848FFF756
:10161000DCFD38B900204F4908603020324908709D
:1016200000F0FEF84FF400713148FFF7CEFD0028BE
:1016300056D14048006850B901204649086002214F
:101640003D48006802F081F900F0EAF848E03948C6
:101650000068012816D102213748006802F058F9C5
:1016600000F0DEF8012349A20021142000F0E6FA80
:101670004FF4FA6002F01AF800F0D2F830201A495C
:1016800008702DE000F0CCF820201749087027E002
:10169000FFE715480078042813D1642001F0E8FB27
:1016A0004FF400711248FFF790FDC8B9012122489C
:1016B000006802F02DF920200B49087000F0B0F806
:1016C0000EE00948007805280AD14FF40071084857
:1016D000FFF77BFD20B920200349087000F0A0F837
:1016E0000A2001F0E3FFD3E61C000020D80400200C
:1016F000000801404C4544436F6E7472616C0000F9
:101700002D2D2D2D2D2D2D2D2D2D2D2D2D2D2D2D09
:101710002D00000054454D50436865636B00000088
:10172000424C41434B544F4C61737400537570727B
:10173000697365002C000020180000204261627966
:10174000204261627900000049204C6F7665207963
:101750006F750000340000204C4544466C6173688E
:101760004F70656E000000004C4544466C61736824
:10177000436C6F73650000006261636B746F4D654D
:101780006E7500004C45444F70656E004C45444FEB
:10179000636C6F73650000007047000070B5002136
:1017A00000230F22C47804B3154C246804F4E064C9
:1017B000C4F5E064210AC1F10403CA40447804FA84
:1017C00003F184781440214309010E4C0678A15599
:1017D000047804F01F050124AC4005786D11AD00BC
:1017E00005F1E025C5F8004109E0047804F01F0583
:1017F0000124AC40044D0678761145F8264070BDB2
:101800000CED00E000E400E080E100E0024901436B
:10181000024A1160704700000000FA050CED00E07C
:1018200070B5002415E004F1B001C8B200F03CFE30
:10183000002000F039FE102000F036FE002504E004
:10184000002000F047FE681CC5B2802DF8DB601C4C
:10185000C4B2082CE7DB70BD10B5FFF7DDFC10BD8E
:101860002DE9F05F06460F4690461C46DDF828A09D
:101870004FF0000BE11704EB5171C910A4EBC1014B
:1018800031B92046E11704EB5171C1F3C70506E0F9
:101890002046E11704EB5171C910491CCDB23D46F9
:1018A00014E02946304600F077F8B1460AE0594680
:1018B0000BF1010B1AF8010000F00CFE09F1010018
:1018C00000F0FF09C145F2DB681CC5B2A542E8DBA8
:1018D000BDE8F09F10B5002400E0641C41F28830A0
:1018E0008442FAD3AE2000F0DFFD002000F0DCFDE2
:1018F000102000F0D9FD402000F0D6FDB02000F00F
:10190000D3FD812000F0D0FDFF2000F0CDFDA1200F
:1019100000F0CAFDC82000F0C7FDA62000F0C4FDFD
:10192000A82000F0C1FD3F2000F0BEFDD32000F054
:10193000BBFD002000F0B8FDD52000F0B5FD8020F3
:1019400000F0B2FDD92000F0AFFDF12000F0ACFDB9
:10195000DA2000F0A9FD122000F0A6FDDB2000F047
:10196000A3FD402000F0A0FD202000F09DFD0220FE
:1019700000F09AFD8D2000F097FD142000F094FDFA
:10198000A42000F091FDA62000F08EFDAF2000F015
:101990008BFDFFF745FF10BD70B504460D4605F100
:1019A000B001C8B200F080FD102141EA141000F02F
:1019B0007BFD04F00F0000F077FD70BD2DE9F047CE
:1019C00006460F469046994600250024A8F12000BF
:1019D000C5B2782E02DD0026781CC7B239463046E3
:1019E000FFF7DAFFB9F1010F03D0B9F1020F31D1DE
:1019F0000EE0002409E005EB4501184A02EB410125
:101A0000085D00F067FD601CC4B2062CF3DB21E02A
:101A1000002407E004EB0511114A505C00F05AFD68
:101A2000601CC4B2082CF5DB781CC1B23046FFF74D
:101A3000B3FF002408E004EB05110831084A505CAC
:101A400000F048FD601CC4B2082CF4DB06F108006D
:101A5000C6B200BF00BFBDE8F0870000943D00089B
:101A6000BC3F00082DE9F0410546884614461F4654
:101A700041462846FFF790FF012F02D0022F6BD17D
:101A80006BE0002C08DA01232D2241462846FFF79F
:101A900095FFA81DC5B2644205F11E01C8B201231D
:101AA00020224146FFF78AFF42F2107094FBF0F0CB
:101AB000C6B206F13000C2B2012341462846FFF704
:101AC0007DFF42F2107094FBF0F100FB11444FF4E3
:101AD0007A7094FBF0F0C6B206F13001CAB2A91DCB
:101AE000C8B201234146FFF769FF4FF47A7094FBB7
:101AF000F0F100FB1144642094FBF0F0C6B206F153
:101B00003001CAB205F10C01C8B201234146FFF70A
:101B100055FF642094FBF0F100FB11440A2094FB74
:101B2000F0F0C6B206F13001CAB205F11201C8B236
:101B300001234146FFF742FF0A2094FBF0F100FB2E
:101B40001144E6B206F13001CAB205F11801C8B27B
:101B500001234146FFF732FF6DE0002C09DA022332
:101B60002D2241462846FFF729FF05F10800C5B29E
:101B7000644205F12801C8B2022320224146FFF742
:101B80001DFF42F2107094FBF0F0C6B206F1300077
:101B9000C2B2022341462846FFF710FF42F21070FE
:101BA00094FBF0F100FB11444FF47A7094FBF0F0D9
:101BB000C6B206F13001CAB205F10801C8B202236B
:101BC0004146FFF7FBFE4FF47A7094FBF0F100FB07
:101BD0001144642094FBF0F0C6B206F13001CAB2A1
:101BE00005F11001C8B202234146FFF7E7FE642069
:101BF00094FBF0F100FB11440A2094FBF0F0C6B214
:101C000006F13001CAB205F11801C8B202234146FB
:101C1000FFF7D4FE0A2094FBF0F100FB1144E6B27A
:101C200006F13001CAB205F12001C8B202234146D3
:101C3000FFF7C4FE00BF00BFBDE8F0812DE9F0470B
:101C40000646894617469A464FF0000800240025AC
:101C5000BAF1010F03D0BAF1020F5ED125E020E006
:101C6000785D203800F0FF087E2E04DD002609F1A3
:101C7000010000F0FF0949463046FFF78DFE0024C1
:101C800009E008EB4801264A02EB4101085D00F03B
:101C900021FC601CC4B2062CF3DBB01DC6B2681C6C
:101CA000C5B2785D0028DBD137E032E0785D2038BE
:101CB00000F0FF08782E04DD002609F1010000F095
:101CC000FF0949463046FFF767FE002407E004EBB2
:101CD0000811144A505C00F0FDFB601CC4B2082CD3
:101CE000F5DB09F10100C1B23046FFF755FE0024D3
:101CF00008E004EB081108310A4A505C00F0EAFBE6
:101D0000601CC4B2082CF4DB06F10800C6B2681CE3
:101D1000C5B2785D0028C9D100BF00BFBDE8F0871B
:101D2000943D0008BC3F000801460020034A50686B
:101D300020F440400843506070470000001002400B
:101D400029B1064AD2690243044BDA6104E0034A2E
:101D5000D2698243014BDA617047000000100240F3
:101D600029B1064A92690243044B9A6104E0034A8E
:101D700092698243014B9A61704700000010024053
:101D800029B1064AD2680243044BDA6004E0034AF0
:101D9000D2688243014BDA607047000000100240B5
:101DA00010B500F01DF84FF4803000F0DBF800BFF4
:101DB000312000F0A5F80028FAD0002000F0C6F885
:101DC000002000F001F9002000F0F2F8012000F0FE
:101DD00007F900BF00F0B2F80428FBD110BD0000E5
:101DE0000F48006840F001000D490860084640684F
:101DF0000C4908400A494860084600680A490840FA
:101E0000074908600846006820F4802008600846FA
:101E1000406820F4FE0048604FF41F00886070475F
:101E2000001002400000FFF8FFFFF6FE30B5002171
:101E30000022002400232D4D6D6805F00C0121B116
:101E4000042905D0082923D105E0294D056022E0A9
:101E5000274D05601FE0254D6D6805F47012234D78
:101E60006D6805F48034022505EB92421CB9214DC2
:101E7000554305600BE01D4D6D6805F400351DB13F
:101E80001C4D5543056002E0194D5543056002E0C5
:101E9000174D056000BF00BF144D6D6805F0F001DF
:101EA0000909154D6B5C0568DD4045600F4D6D6897
:101EB00005F4E061090A104D6B5C4568DD40856002
:101EC0000A4D6D6805F46051C90A0B4D6B5C45689D
:101ED000DD40C560054D6D6805F44041890B074D37
:101EE0006B5CC568B5FBF3F5056130BD00100240C1
:101EF00000127A0000093D006809002078090020DE
:101F000010B501460022002300204A11012A02D107
:101F1000094C236806E0022A02D1074C236A01E03B
:101F2000054C636A01F01F02012494401C400CB16F
:101F3000012000E0002010BD00100240024840686F
:101F400000F00C0070470000001002400146002025
:101F5000034A506820F0F0000843506070470000CA
:101F6000001002401149096821F480310F4A1160C4
:101F70001146096821F480211160B0F5803F03D03B
:101F8000B0F5802F0ED106E00849096841F4803190
:101F9000064A116007E00549096841F4A021034A97
:101FA000116000E000BF00BF704700000010024059
:101FB00001460020034A506820F4E0600843506066
:101FC000704700000010024001460020034A50689C
:101FD00020F4605040EAC100506070470010024099
:101FE00001460020034A506820F003000843506077
:101FF000704700000010024010B500F001F810BD5D
:102000000CB50020019000902548006840F4803015
:102010002349086000BF2248006800F400300090A7
:102020000198401C0190009818B90198B0F5A06F74
:10203000F1D11B48006800F4003010B1012000907D
:1020400001E0002000900098012828D11548006880
:1020500040F01000134908600846006820F00300B3
:1020600008600846006808600D4840680C494860F0
:10207000084640684860084640684860084640682E
:1020800020F0030048600846406840F001004860C6
:1020900000BF0348406800F00C000428F9D10CBDD3
:1020A0000010024000200240042808D14FF0E02137
:1020B000096941F004014FF0E022116107E04FF09F
:1020C000E021096921F004014FF0E022116170471D
:1020D00010B501F04DFD012801D001F0FFFC10BD4D
:1020E00010B51348006840F0010011490860084627
:1020F0004068104908400E494860084600680E498B
:1021000008400B4908600846006820F480200860F9
:102110000846406820F4FE0048604FF41F008860C5
:10212000FFF76AFF4FF000600449086010BD00002F
:10213000001002400000FFF8FFFFF6FE08ED00E08F
:102140001FB5044601210846FFF7FAFDADF804402B
:102150000720ADF800000020ADF80200ADF8060041
:1021600001221146900700F04DF81C208DF80C005C
:1021700000208DF80D0003208DF80E0001208DF851
:102180000F0003A8FFF70AFB69464FF0804000F0FC
:1021900043F80121880700F018F81FBD10B5012190
:1021A000880700F01EF840B10121880700F00AF806
:1021B00003480068401C024908600148006810BDDF
:1021C00044000020CA430282704721B1028842F0D5
:1021D0000102028004E002884FF6FE731A4002807A
:1021E000704730B50246002000230024158A05EA16
:1021F0000103958905EA010413B10CB1012000E047
:10220000002030BD1AB183890B43838102E08389AA
:102210008B43838170470000002202881D4B984247
:102220000ED01D4B98420BD0B0F1804F08D01B4B05
:10223000984205D01A4B984202D01A4B984204D1CA
:102240004FF68F731A404B881A43174B984207D0AA
:10225000164B984204D04FF6FF431A40CB881A43DE
:1022600002808B8883850B8803850A4B98420BD0AC
:10227000094B984208D00E4B984205D00D4B98421E
:1022800002D00D4B984201D10B7A03860123838241
:1022900070470000002C0140003401400004004061
:1022A00000080040000C00400010004000140040F6
:1022B00000400140004401400048014007E0FEF7B3
:1022C000D7FD034908804FF47A7001F0EFF9F6E783
:1022D0003800002010B502460020108A4FF2FF039C
:1022E00018400B884C8823438C882343CC88234395
:1022F0001843108210BD21B1828942F400528281BC
:1023000004E082894DF6FF731A40828170470246CD
:102310000020B1F5007F00D100BF13880B400BB146
:10232000012000E0002070472DE9F04786B0054607
:102330000E460024A24600BFA1460027B08900B186
:1023400000BF2F462C8A4CF6FF700440F0880443EF
:102350002C82AC894EF6F3100440B08831890843D2
:10236000718908430443AC81AC8A4FF6FF400440B6
:10237000B0890443AC8201A8FFF758FD1F4887428B
:1023800002D1DDF810A001E0DDF80CA0A88900F46E
:10239000004040B10AEBCA0000EB0A103168490066
:1023A000B0FBF1F807E00AEBCA0000EB0A10316855
:1023B0008900B0FBF1F86420B8FBF0F004012009BB
:1023C000642101FB1089A88900F4004040B132204B
:1023D00000EBC900B0FBF1F000F00700044308E097
:1023E000322000EB09106421B0FBF1F000F00F0087
:1023F00004432C8106B0BDE8F0870000003801409E
:10240000C1F308028280704700BFFEE700B587B0C5
:10241000012144F20500FFF7A3FC4FF40070ADF872
:10242000180003208DF81A0018208DF81B0006A94B
:102430001B48FEF73FFE4FF48060ADF81800042003
:102440008DF81B0006A91648FEF734FE4FF4E13064
:1024500002900020ADF80C00ADF80E00ADF81000B1
:10246000ADF814000C20ADF812000020ADF800000B
:10247000ADF802004FF40070ADF804000020ADF894
:10248000060069460748FFF725FF02A90548FFF740
:102490004BFF01210348FFF72EFF07B000BD0000EE
:1024A000000801400038014010B50446FEF702FF65
:1024B0007820FEF7CBFEFEF749FF0020FEF7C6FEB0
:1024C000FEF744FF2046FEF7C1FEFEF73FFFFEF792
:1024D00017FF10BD10B50446FEF7ECFE7820FEF79E
:1024E000B5FEFEF733FF4020FEF7B0FEFEF72EFFED
:1024F0002046FEF7ABFEFEF729FFFEF701FF10BDF9
:102500000FB4054B10B503A9044A029800F0DAF89D
:1025100010BC5DF814FB0000052F000850000020DF
:1025200002E008C8121F08C1002AFAD1704770479C
:10253000002001E001C1121F002AFBD170470000FA
:102540002DE9FF5F82B00021DDE90430020DDDF8E6
:1025500040B0034318D044F61050A2F2FF32424379
:102560001514119801281FD0A5EB0B00401C5FEA41
:10257000000A4FF000064E4FDFF83891B046504643
:1025800015D5CAF1000413E0119801244AA30128CB
:1025900001D16FEA0B010298119AC0E90031C0E93C
:1025A000024206B0BDE8F09FCBF10000DFE7044631
:1025B0000021404A491842EB0450CDE9001012E0D6
:1025C000E00707D032463B4640464946FDF7E0FF6C
:1025D0008046894632463B4610461946FDF7D8FFED
:1025E00006460F466410002CEAD1DDE90401DDE95E
:1025F0000023BAF1000F06DAFDF7CAFF42464B4648
:10260000FDF7C6FF05E0FEF735F842464B46FEF7FC
:1026100031F804460E460022284BFEF7B3F803D8E3
:102620004FF0FF30014607E00022254B204631469F
:10263000FDF707FFFEF78DF8102409E0002C0ADBF8
:102640000A220023FDF795FE039B30321A55641EC3
:1026500050EA0102F2D1641C039AC4F1110314443C
:10266000119A012A03D0012208430DD10AE0084340
:1026700004D000204FF0110B119072E7A3EB0B0573
:102680006D1E0DE05B4504DD4FF0000205F1010514
:1026900004E003DA4FF00002A5F10105002AECD0B6
:1026A00002981199C0E90231C0E9004579E70000BC
:1026B000000014400000F03F300000000000F04334
:1026C0000000E03F2DE9FF4F95B09A468846064648
:1026D0000025EEE1252877D100242746F94A01217B
:1026E000039400E0044316F8013F203B01FA03F095
:1026F0001042F7D130782A2811D06FF02F033078AC
:10270000A0F13002092A16D8039A44F0020402EB21
:10271000820203EB42021044761C0390EFE758F864
:10272000042B0392002A03DA504244F4005403902D
:1027300044F00204761C30782E2816D116F8010FCA
:1027400044F004042A280DD06FF02F023078A0F155
:102750003003092B09D807EB870302EB4303C718A3
:10276000761CF3E758F8047B761C30786C280FD081
:1027700006DC4C2817D068280DD06A2814D104E054
:10278000742810D07A280FD10DE044F400140AE028
:1027900044F4801401E044F440147278824202D17F
:1027A00004F58014761C761C307866280BD013DC78
:1027B000582877D009DC002875D04528F6D046285F
:1027C000F4D047281AD193E118E0632835D0642863
:1027D00079D0652812D18BE1702873D008DC672886
:1027E000F1D069286FD06E280DD06F2806D1ACE0EB
:1027F00073282CD0752874D0782853D05246179956
:1028000090476D1C54E1C4F30250022809D00328FC
:102810000DD0D8F8001004280DD00D6008F1040880
:1028200046E1D8F80010EA17C1E90052F6E7D8F8F7
:1028300000100D80F2E70D70F0E718F8041B8DF81A
:10284000001000208DF80100EB46012003E058F84D
:1028500004BB4FF0FF3061074FF0000102D40DE0E0
:1028600009F101018946B9420FDA8145F8DB1BF80D
:1028700009100029F4D108E009F1010189468142DB
:10288000FADB1BF809100029F6D103985346A0EB98
:10289000090721463846179A00F080FA284400EBD1
:1028A000090507E044E008E10DE01BF8010B524682
:1028B00017999047B9F10109F7D253462146384696
:1028C000179AF2E039E00A21C4F302524FF0000BEC
:1028D0000091022A06D058F8040BC117032A09D028
:1028E0000AE023E008F1070020F00702F2E8020105
:1028F000904605E000B2C117042A01D140B2C117C9
:10290000002906DA0A460021404261EB02012D222D
:1029100002E0220504D52B228DF80420012203E0D9
:10292000E20701D02022F7E7914657E00A2100E0B4
:1029300010214FF0000B00910BE010214FF0000B25
:1029400044F004040827009103E008204FF0000B36
:102950000090C4F30252022A05D058F8040B00215B
:10296000032A08D008E008F1070020F00702F2E887
:102970000201904603E080B2042A00D1C0B24FF0B9
:10298000000922072AD53278702A07D0DDF800C066
:102990008CF0100C5CEA0B0C05D00EE040228DF898
:1029A0000420012208E050EA010306D030238DF80C
:1029B00004308DF8052002229146009B83F0080325
:1029C00053EA0B030AD150EA010201D1620705D58F
:1029D00030228DF804204FF001097F1E3278582AEA
:1029E00004D039A20C920CAA02920BE03BA2F9E7A8
:1029F0005B46009AFDF7BDFC0C9B9B5C029A521E45
:102A00000292137050EA0102F2D1029804A9081A46
:102A100000F1200B600702D524F4803400E0012788
:102A20005F4502DDA7EB0B0000E0002000EB0B018F
:102A3000009003984944401A0390E00306D453469B
:102A40002146179A039800F0A9F90544002706E0EB
:102A500001A85246C05D179990476D1C7F1C4F45D9
:102A6000F6DBE0030CD553462146179A039800F095
:102A700095F9054404E030205246179990476D1CA3
:102A80000099481E00900029F5DC08E002980299A0
:102A900052460078491C0291179990476D1CBBF172
:102AA0000001ABF1010BF1DC5BE100F065F90544DD
:102AB000761C307800287FF40DAE19B02846BDE8AA
:102AC000F08F0000092801003031323334353637B9
:102AD000383961626364656600000000303132336A
:102AE000343536373839414243444546000000000A
:102AF000600700D4062708F1070020F00700F0E87F
:102B00000223804603F0004C5FEA0C0001D097A03E
:102B100009E0200501D596A005E0E00701D095A0C9
:102B200001E0AFF24C001390307823F000436528A9
:102B30000CD006DC452809D046281DD047287FD177
:102B40003BE0662818D067287AD136E00021112FA3
:102B500001DB112000E0781CCDE9000104A90CA8DC
:102B6000FFF7EEFCDDE90D010C9A4FF0000B07F1C9
:102B70000109109200914EE04FF000400097CDE91E
:102B8000011004A90CA8FFF7DBFCDDE90D020C9B8A
:102B90000F994FF0000B91461093009211B9791CD8
:102BA00000EB0109B7EB090003D4C0F1FF3B07F1CB
:102BB0000109A9EB0700019042E0012F00DA01278B
:102BC0000021112F01DD112000E03846CDE9000180
:102BD00004A90CA8FFF7B4FCDDE90D010C9A0091E3
:102BE0004FF0000BB946109221070FD4009A4A45C6
:102BF00003DA914601E0A9F10109B9F1010F05DD00
:102C0000109AA9F10101515C3029F4D0B84202DADE
:102C100010F1040F03DA0121CDE9011010E00028C2
:102C200003DC8344A9EB000102E0411C494500DDBF
:102C30008946A0EB0B00401C01904FF00040029031
:102C4000200705D40198484502DB4FF0FF30019082
:102C500000208DF84B0002980DF14B07B0F1004FAA
:102C600025D002200C902B200D90029800280CDA21
:102C7000404202902D200D9007E00A210298FDF7B6
:102C800062FB3031029007F8011D0C99481E0C9030
:102C90000029F2DC02980028EFD1791E0D98087007
:102CA000307800F0200040F0450007F8020D11A830
:102CB000C01BC01D02901398007800B1012000EBEA
:102CC0000901019801EBE071029801440398401A50
:102CD000401E0390E00306D453462146179A0398FA
:102CE00000F05CF805441398007818B15246179923
:102CF00090476D1CE00323D553462146179A03984D
:102D000000F04CF805441BE0BBF1000F07DB009816
:102D1000584504DD1098179910F80B0001E0179939
:102D200030205246904701980BF1010B401E05F1EF
:102D30000105019004D12E205246179990476D1C31
:102D4000B9F10001A9F10109DEDC05E017F8010B7A
:102D50005246179990476D1C0299481E029000290F
:102D6000F4DC53462146179A03989EE62D00000096
:102D70002B000000200000002DE9F0410446002552
:102D80001E461746880404D405E039462020B04783
:102D90006D1C641EF9D52846BDE8F0812DE9F0418F
:102DA000044600251E469046C80301D5302700E0A2
:102DB0002027880404D505E041463846B0476D1CFD
:102DC000641EF9D52846BDE8F081000010B5042046
:102DD000FFF76AF9104800681049B0FBF1F010499C
:102DE00008700D4800680D49B0FBF1F44FF47A709B
:102DF000444301200B4908804FF0E020006940F077
:102E000002004FF0E021086108464461006940F08B
:102E10000100086110BD00007C09002040420F0045
:102E2000540000205600002070B5034600224FF0E9
:102E3000E02675690D4E367803FB06F44FF0E02668
:102E4000B16910E04FF0E026B06988420BD08842AB
:102E500002D20E1A324402E02E1A0E4432440146C7
:102E6000A24200D300E0EDE700BF70BD5400002097
:102E700030B50446002504E04FF47A70FFF7D4FF24
:102E80006D1CA542F8D330BD38B5054600F0B4FB43
:102E9000FEF720FD164808238022002100900846F6
:102EA000FEF7DEFC4FF4FA60FFF7E2FFFEF7B8FC36
:102EB000022310A201211420FEF7C0FE05240BE01E
:102EC0000223224603211420FEF7CCFD4FF4487064
:102ED000FFF7CEFF601EC4B2002CF1DCFEF7A0FCB1
:102EE00000F09CFB0648006800F0FAFB38BD0000CB
:102EF000580000207374617274696E672E2E2E0064
:102F00000C00002070B504460D4600BF4021054866
:102F1000FFF7FDF90028F9D0E1B20248FFF770FA97
:102F2000204670BD0038014010B50446012C04D184
:102F300002210448FEF752F903E002210148FEF79E
:102F40004FF910BD0008014010B51B48007810284B
:102F500013D01948007804280FD0174800780528A6
:102F60000BD01648006840001549086008460178F3
:102F7000012314A20020FEF761FE4FF48071124875
:102F8000FEF723F9B0B90D480068401C0B490860F2
:102F900008460068032806D107480078302809D180
:102FA0000020086006E005480068042802D10020DF
:102FB0000249086010BD00001C0000202C00002009
:102FC000640900203E3E0000000801401CB54FF49B
:102FD0004070FEF71BFCFEF739F8FEF7E1FE4FF4F8
:102FE000FA60FFF7ADF8FFF711FAFDF7A3FDFFF761
:102FF000EDFEFEF731FCFDF76FFF01240A480021CA
:103000000B466422CDE9001008A10A4800F080FDBB
:103010000446012C02D100F011FC02E04FF0FF3019
:103020001CBD00BFFEE7000000000020417070548E
:1030300061736B008D0C00082DE9F04105460E46CA
:103040001C4807681C480068001D00F07DFA50B954
:103050001948006890F82C10012088401749096829
:10306000814316480160681C38B936B112480168BE
:10307000091D134800F0B4FA1AE07C190E480068E4
:103080004460BC4207D20C480168091D0D48006825
:1030900000F08CFA0CE008480168091D0A48006835
:1030A00000F084FA09480068844201D207480460AD
:1030B000BDE8F081A409002090090020A8090020A3
:1030C000A40A00209809002094090020C0090020CB
:1030D00010B5044600F090FA23480068401C2249CD
:1030E00008602248006840B920480460084600682B
:1030F00001280DD100F00CF90AE01D48006838B92C
:103100001A480068C06AE16A884201D8174804601A
:1031100018480068401C1749086094F82C100120DA
:10312000884015490968084313490860E16A01EBC2
:103130008101124A02EB8100211D00F051FA00F0DA
:103140006DFA0B48006868B108480068C06AE16A17
:10315000884207D24FF0805009490860BFF34F8F73
:10316000BFF36F8F10BD0000A00900209009002060
:10317000AC090020BC090020A8090020F0090020AB
:1031800004ED00E010B516E000F036FA0C48C06817
:10319000C468201D00F0D8F90A480068401E09499B
:1031A000086009480068401E0749086000F036FAC8
:1031B000204600F00BF8044800680028E4D110BD58
:1031C000900A0020A00900209C09002010B50446A8
:1031D000206B00F033FA204600F030FA10BD0000FA
:1031E00030B54FF42053174800F007042CB1C01D30
:1031F00020F00700134C041B1B1B0246124C2260DC
:103200000024114D6C60D018083820F007000F4CD6
:10321000206000240D4D2D686C600C4D2D682C60D5
:103220001146441A4C60094C24680C60084D4C68E7
:103230002C60084D4C682C604FF00044064D2C600B
:1032400030BD0000B80A0020CC090020D4090020BD
:10325000DC090020D8090020E809002000BFFFF7A2
:1032600091FF064800680128F9D94FF080500449C1
:103270000860BFF34F8FBFF36F8FF0E7F0090020B6
:1032800004ED00E02DE9FF5F80460E469146DDE942
:103290000E7A109CA9F10100216B01EB800B2BF041
:1032A000070B86B1002507E0715D04F1340041553C
:1032B000705D00B902E06D1C102DF5D300BF002138
:1032C0004320015502E0002084F83400052F00D38C
:1032D0000427E762201D00F066F904F1180000F0F1
:1032E00062F92461C7F10500A06164620020606496
:1032F00084F8480041465846039A00F013F92060CC
:10330000BAF1000F01D0CAF80040BDE8FF9F0000ED
:1033100010B5002407E004EB84010F4A02EB8100A2
:1033200000F034F9641C052CF5D30C4800F02EF99C
:103330000B4800F02BF90B4800F028F90A4800F080
:1033400025F90A4800F022F90448094908600448B0
:103350000849086010BD0000F0090020540A002050
:10336000680A00207C0A0020900A0020A40A00209D
:10337000940900209809002010B50146164800E085
:10338000006803688B42FBD30246436813448B42B8
:1033900004D143684C682344436001460A464B68A5
:1033A00013440468A34211D10C4C03682468A3425F
:1033B00008D04B680468646823444B6003681B684A
:1033C0000B6005E0054B1B680B6001E003680B60B8
:1033D000884200D0016010BDCC090020D409002033
:1033E00009480068006808B9012000E0002020B109
:1033F0004FF0FF300549086005E003480068C068E9
:10340000006802490860704794090020C009002044
:1034100000BFBF2080F31188BFF34F8FBFF36F8FC2
:1034200000BF00BFFEE710B50346002022B903EA43
:10343000010434B1012004E003EA01048C4200D10C
:10344000012010BD2DE9F04105464FF0000800F0C5
:1034500027FA2E48006808B9FFF7C2FE2C4800681A
:10346000284000284CD145B1083505F0070020B1AF
:1034700005F00700C0F108000544002D40D02548A4
:10348000006885423CD8244E3046046801E0264658
:1034900024686068A84202D220680028F7D11B483F
:1034A000006884422CD0306800F108082068306041
:1034B0006068401B102807D967196068401B786056
:1034C00065603846FFF758FF124960680968081AB6
:1034D000104908600846006810490968884203D20C
:1034E0000C4800680D49086009496068096808438C
:1034F0006060002020600A480068401C084908609D
:1035000000F0D4FB4046BDE8F0810000D409002063
:10351000E8090020D8090020CC090020DC0900209F
:10352000E0090020001F4FF080730360001F21F0AE
:1035300001030360001F034B03601438026020384E
:10354000704700001134000801460A69D1E90130D2
:103550009860D1E9010358605068884201D18868B9
:103560005060002008611068401E106010687047AD
:1035700005490968886904490968C96AC1F10501F2
:10358000014A1268916170479009002000F108011A
:1035900041604FF0FF31816000F10801C1600161BD
:1035A00000210160704700210161704710B502469B
:1035B0000B685C1C0CB9106907E002F1080000E020
:1035C0004068446824689C42FAD944684C604C685E
:1035D000A160886041600A611468641C146010BDB9
:1035E00042684A6093688B60936859609160086193
:1035F00003685B1C0360704700BFBF2080F3118825
:10360000BFF34F8FBFF36F8F00BF03480068401CAC
:103610000149086070470000EC0900200648006876
:10362000401E054908600846006820B9002080F364
:10363000118800BF00BF7047EC09002070B5064636
:103640003546FEB1083D2C460F49606809680840C0
:10365000C0B12068B0B90C496068096888436060EF
:1036600000F01EF9094960680968084407490860C4
:103670002046FFF781FE06480068401C04490860A8
:1036800000F014FB70BD0000E8090020D8090020FC
:10369000E409002000204FF0E0210861886141F634
:1036A0003F704861072008617047000070B504460C
:1036B000002544B100F0F4F800212046FFF7BCFCDF
:1036C00000F0F4FA05463DB94FF080500349086018
:1036D000BFF34F8FBFF36F8F70BD000004ED00E0AC
:1036E00070B50546FFF788FF15B92748006800E068
:1036F00028460446201DFFF727FF78B9E06A00EB53
:103700008000224951F8200040B994F82C10012083
:1037100088401F49096881431D480160A06A18B1AB
:1037200004F11800FFF710FF1A480068401C1949FF
:10373000086015480068844209D1211D1648FFF72A
:103740004FFF16480068401C1449086009E01448FF
:103750000068401E124908602046FFF737FDFFF75A
:103760003FFEFFF75BFF0F48006858B1064800684E
:10377000844207D14FF080500B490860BFF34F8F50
:10378000BFF36F8F70BD000090090020F00900208A
:10379000A8090020BC090020900A00209C090020F4
:1037A000A0090020AC09002004ED00E070B5064639
:1037B0000C46154644F000400649096888610548F2
:1037C000016818313046FFF70BFF01212846FFF74B
:1037D00033FC70BD9009002070B505460E4646F0DA
:1037E00000402860EC682846FFF7AEFE201DFFF77A
:1037F000ABFE94F82C10012088400C49096808435E
:103800000A490860E16A01EB8101094A02EB810083
:10381000211DFFF7E5FE0749E06A0968C96A884289
:1038200002D901200449086070BD0000A8090020E9
:10383000F009002090090020B40900201CB51148AF
:1038400000210B468022CDE900100FA1104800F0A6
:103850005FF90446012C14D100BFBF2080F311880A
:10386000BFF34F8FBFF36F8F00BF4FF0FF30094999
:10387000086001200849086000200849086000F03D
:1038800013F91CBDC409002049444C450000000048
:103890005D320008C0090020AC090020A409002006
:1038A00002480068401C014908607047C8090020B0
:1038B0001248006818B10120114908601DE000207D
:1038C0000F4908600F480068B0FA80F0C0F11F018E
:1038D00001EB81020C4B03EB8200426852684260AC
:1038E00000F108024368934202D142685268426084
:1038F0004268D268054B1A6000BF7047C8090020B3
:10390000B4090020A8090020F00900209009002037
:103910002DE9F04104460E462546FFF76DFE2F685F
:103920002868B0432860FFF779FE3846BDE8F0818B
:1039300010B51820FFF786FD044624B10020206052
:10394000201DFFF723FE204610BD2DE9FE4F064641
:103950008946002001903446009004F1040B0BF1DD
:1039600008000290FFF79CFFDBF80C70206840EA2B
:103970000900206026E0D7F804A03D6800200090F0
:1039800005F07F4825F07F4508F0806028B9206861
:10399000284040B10120009005E020682840A8425E
:1039A00001D101200090009858B108F0807010B14A
:1039B000019828430190206840F000713846FFF7D5
:1039C0000BFF574602988742D5D12068019988435A
:1039D000206000F06BF92068BDE8FE8F2DE9FF5FE5
:1039E00080460E4617469946DDF838A044464FF00B
:1039F000000B00200190FFF753FF206800904A461B
:103A000031460098FFF70FFD0390039830B1009DF9
:103A1000DA46CFB12068B043206015E0BAF1000F5C
:103A200003D1009D012001900EE00FB14BF0807B8F
:103A3000B9F1000F01D04BF0806B46EA0B01524602
:103A4000201DFFF7B3FE002500F030F90290BAF117
:103A5000000F22D0029838B94FF080501149086009
:103A6000BFF34F8FBFF36F8FFFF782FD054605F061
:103A7000007080B9FFF7C0FD25684A4631462846E8
:103A8000FFF7D1FC18B117B12068B04320600120C6
:103A90000190FFF7C3FD25F07F45284604B0BDE83F
:103AA000F09F000004ED00E010B50A48006840F403
:103AB0007F00084908600846006840F07F400860C1
:103AC000FFF7E8FD002004490860FCF74FFB0020E9
:103AD00010BD000020ED00E0EC09002010B500BF93
:103AE000BF2080F31188BFF34F8FBFF36F8F00BFEC
:103AF00000F04EF818B14FF080500449086000BF44
:103B0000002080F3118800BF10BD000004ED00E02C
:103B10002DE9FF4F85B0804689461746DDE912AB97
:103B2000B800FFF78FFC064656B14C20FFF78AFC21
:103B300004460CB1266304E03046FFF77FFD00E049
:103B400000247CB10020CDE900ABCDE902403A462B
:103B500049464046089BFFF795FB2046FFF7B8FA19
:103B6000012501E04FF0FF35284609B0BDE8F08F90
:103B70000549096809B9012005E00449096809B93E
:103B8000022000E000207047AC090020C809002096
:103B90002DE9F04100273A480068002867D13948EC
:103BA0000068451C374805608DB93748D0F800805B
:103BB00036480068344908603448C0F8008034480A
:103BC0000068401C32490860FFF70AFC00BF31481A
:103BD000006885423BD300BF2B480068006808B9E5
:103BE000012000E0002020B14FF0FF30294908609B
:103BF0002CE025480068C068C4686668B54202D2F7
:103C00002448066022E0201DFFF79EFCA06A18B140
:103C100004F11800FFF798FC94F82C10012088405C
:103C20001D49096808431C490860E16A01EB8101EC
:103C30001A4A02EB8100211DFFF7D2FC1849E06A05
:103C40000968C96A8842C7D30127C5E700BF14487D
:103C50000068C06A00EB8000104951F8200001287C
:103C600000D901270F48006800B1012704E00E4881
:103C70000068401C0C4908603846BDE8F08100002F
:103C8000C8090020A40900209409002098090020F8
:103C9000B8090020C0090020A8090020F009002070
:103CA00090090020B4090020B009002070B500245C
:103CB0000026FFF7A1FC2E480068401E2C49086032
:103CC0000846006800284FD12A48006800284BD0D9
:103CD00024E02948C068C46804F11800FFF734FCE8
:103CE000201DFFF731FC94F82C1001208840234957
:103CF0000968084321490860E16A01EB8101204A13
:103D000002EB8100211DFFF76BFC1E49E06A096888
:103D1000C96A884202D301201B490860164800681E
:103D200008B9012000E000200028D2D00CB1FFF734
:103D300057FB1648056865B100BFFFF729FF10B1B2
:103D40000120114908606D1E002DF6D100200F4999
:103D500008600D48006838B1012630070C4908603A
:103D6000BFF34F8FBFF36F8FFFF758FC304670BD26
:103D7000C8090020A00900207C0A0020A809002012
:103D8000F009002090090020B4090020B0090020AB
:103D900004ED00E00000000000000000002F000023
:103DA00000000700070000147F147F1400242A7FFE
:103DB0002A1200626408132300364955225000007D
:103DC0000503000000001C224100000041221C00ED
:103DD0000014083E08140008083E0808000000A06F
:103DE000600000080808080800006060000000206B
:103DF00010080402003E5149453E0000427F400049
:103E0000004261514946002141454B3100181412CE
:103E10007F10002745454539003C4A49493000019B
:103E20007109050300364949493600064949291EEA
:103E3000000036360000000056360000000814224C
:103E4000410000141414141400004122140800024C
:103E50000151090600324959513E007C1211127C71
:103E6000007F49494936003E41414122007F41419E
:103E7000221C007F49494941007F09090901003E90
:103E80004149497A007F0808087F0000417F4100CE
:103E9000002040413F01007F08142241007F404044
:103EA0004040007F020C027F007F0408107F003E2C
:103EB0004141413E007F09090906003E4151215E12
:103EC000007F091929460046494949310001017F0F
:103ED0000101003F4040403F001F2040201F003FA5
:103EE0004038403F00631408146300070870080757
:103EF00000615149454300007F41410000552A556A
:103F00002A55000041417F000004020102040040E4
:103F10004040404000000102040000205454547806
:103F2000007F484444380038444444200038444426
:103F3000487F00385454541800087E0901020018C4
:103F4000A4A4A47C007F080404780000447D400001
:103F5000004080847D00007F102844000000417FE5
:103F60004000007C04180478007C080404780038C1
:103F70004444443800FC242424180018242418FC49
:103F8000007C0804040800485454542000043F44B2
:103F90004020003C4040207C001C2040201C003C75
:103FA0004030403C004428102844001CA0A0A07CC5
:103FB000004464544C4414141414141400000000FD
:103FC000000000000000000000000000000000F8F9
:103FD00000000000000000333000000000100C065C
:103FE000100C0600000000000000000040C07840F7
:103FF000C0784000043F04043F040400007088FCC3
:1040000008300000001820FF211E0000F008F0001A
:10401000E018000000211C031E211E0000F008888B
:10402000700000001E2123241927211010160E00F5
:10403000000000000000000000000000000000E0A0
:1040400018040200000000071820400000020418B5
:10405000E00000000040201807000000404080F011
:10406000804040000202010F01020200000000F047
:10407000000000000101011F01010100000000001B
:104080000000000080B07000000000000000000090
:104090000000000000010101010101010000000019
:1040A00000000000003030000000000000000000B0
:1040B00080601804006018060100000000E010088D
:1040C0000810E000000F102020100F00001010F862
:1040D000000000000020203F2020000000700808A1
:1040E0000888700000302824222130000030088821
:1040F000884830000018202020110E000000C02049
:1041000010F8000000070424243F240000F8088869
:10411000880808000019212020110E0000E01088F6
:1041200088180000000F112020110E000038080828
:10413000C83808000000003F000000000070880838
:1041400008887000001C222121221C0000E01008B9
:104150000810E0000000312222110F00000000C012
:10416000C0000000000000303000000000000080AF
:10417000000000000000806000000000000080409F
:1041800020100800000102040810200040404040B8
:10419000404040000404040404040400000810200B
:1041A0004080000000201008040201000070480850
:1041B0000808F0000000003036010000C030C828B8
:1041C000E810E0000718272423140B000000C03873
:1041D000E0000000203C23020227382008F88888ED
:1041E00088700000203F202020110E00C0300808F9
:1041F00008083800071820202010080008F80808D0
:104200000810E000203F202020100F0008F88888C8
:10421000E8081000203F20202320180008F8888894
:10422000E8081000203F200003000000C03008080C
:104230000838000007182020221E020008F8080095
:104240000008F808203F210101213F20000808F85C
:10425000080800000020203F20200000000008087F
:10426000F8080800C08080807F00000008F888C03F
:1042700028180800203F20012638200008F80800F0
:1042800000000000203F20202020300008F8F80027
:10429000F8F80800203F003F003F200008F830C039
:1042A0000008F808203F200007183F00E010080829
:1042B0000810E0000F10202020100F0008F8080858
:1042C0000808F000203F210101010000E01008086B
:1042D0000810E0000F18242438504F0008F8888890
:1042E00088887000203F2000030C30200070880870
:1042F000080838000038202121221C00180808F87E
:10430000080818000000203F2000000008F80800FE
:104310000008F808001F202020201F0008788800CF
:1043200000C83808000007380E010000F80800F83F
:104330000008F800033C0700073C030008186880E9
:104340008068180820302C03032C30200838C8005F
:10435000C83808000000203F2000000010080808AE
:10436000C83808002038262120201800000000FE50
:10437000020202000000007F40404000000C30C0FC
:1043800000000000000000010638C0000002020228
:10439000FE000000004040407F00000000000402DA
:1043A0000202040000000000000000000000000005
:1043B00000000000808080808080808000020204F5
:1043C00000000000000000000000000000008080ED
:1043D000808000000019242222223F2008F800805B
:1043E00080000000003F112020110E00000000801E
:1043F00080800000000E11202020110000000080AD
:104400008088F800000E112020103F2000008080DE
:1044100080800000001F222222221300008080F0F2
:10442000888888180020203F20200000000080801D
:1044300080808000006B94949493600008F8008062
:1044400080800000203F210000203F2000809898BD
:10445000000000000020203F20200000000000801D
:104460009898000000C08080807F000008F800005D
:1044700080808000203F24022D302000000808F8B2
:10448000000000000020203F20200000808080806D
:1044900080808000203F20003F20003F80800080FF
:1044A00080800000203F210000203F20000080800D
:1044B00080800000001F202020201F0080800080BE
:1044C0008000000080FFA12020110E00000000806D
:1044D00080808000000E112020A0FF80808080005E
:1044E0008080800020203F2120000100000080808B
:1044F000808080000033242424241900008080E080
:10450000808000000000001F20200000808000004C
:1045100000808000001F202020103F20808080002D
:104520000080808000010E3008060100808000803D
:10453000008080800F300C030C300F000080800062
:10454000808080000020312E0E312000808080008D
:104550000080808080818E7018060100008080803D
:10456000808080000021302C2221300000000000DB
:10457000807C020200000000003F4040000000007C
:10458000FF00000000000000FF0000000002027CAD
:10459000800000000040403F0000000000060101D4
:1045A000020204040000000000000000CC450008E6
:1045B00000000020F0090000F4080008504900083D
:1045C000F0090020C82C000030250008011C7210E2
:1045D000061374656D703AA32C01021D0A67E0E0B2
:1045E000F0F0E0C000081D80F0F8FCFCFCF83D8015
:1045F0008080C00101231BC0E0010A18804B2947BD
:104600002CC1CFFF012EFCE0F0F8FE092BEFE335C3
:1046100069011AC03E6C187C7E01392B180BFF9F74
:104620008F8F8FC7C7C1C0C08C09185E113BC0FCFB
:104630002E5BF3F0011AF80175FCF8F8F03B063F29
:104640001F4BEF0F0749873FFF0787C7E7F70A3B75
:10465000C7E7073AFE3A3DFCFCFCFE9F59823C9FAF
:10466000CFEF092ADF226CFEFC30D219D31BE0E029
:104670003129302813FFFF3F1F0F0303C3E3E3F388
:10468000E3E3030303C1F932937F0F3B011F444C63
:10469000F0C1E74D99011AFD3E280ABF1F0F07031D
:1046A00001011F7F115AF196390D1EFFFF1F3F7F39
:1046B000011E3F3F1F1F0F25311C1C3EBF0119105B
:1046C00029114B87E3255149312BF0FC3DE41F0FA5
:1046D000013C01070F7C2EF7C7C7C7E7013AF76710
:1046E0003DF7E7CF8F5771180A030707078783C382
:1046F000C1E1DD3EF1F1F9F9F80195F0F0E0C01A01
:104700000F931CFFFFFC151AF8BC19FB72074980B8
:104710002A0101011549202D0F8F8F87014DC7C335
:10472000838312F1180D8FDFDFFFFFEFEFE7E7F371
:10473000F3F1013DE1E1E3C72752FC1C80C0E079C1
:104740001AFDE32A3F871BFDF89B13C0803BC0E0A6
:104750008D2D7F7FFFFE9A291301123A3F484ADFD1
:10476000014CCFCFCF58E980180B0707EFEFF7E7E1
:10477000E7C7C7C3013BE3F7234D7F3F0F07D5587A
:104780000803070F0F070703E25D010307EF215A34
:104790001F2219132A0F690411FEFCF02C070F1FAA
:1047A000015A0F012B1F3F0102111F1B0107655901
:1047B00001296C596D01171A01010910156B0303CA
:1047C000A401A02B80E0010A2F8037092F320914A1
:1047D000472BF8FF014BEFF0010325E0C02BC0FE93
:1047E000351F7E808080C0C0BD29390C22E0C0C04A
:1047F00092193219301BF8FC013DF8C080E07E3878
:10480000097F9FCFC78703C3FB0CBA062E3AC0604F
:1048100029611BF8F8352CF8F8F07E49363A7FBA52
:104820003809CF0F0F070783C7EF0D03117E181B41
:10483000387C6B3A7E011B7F3F013E1F1F0F0FC765
:104840002D1CFF071F013C0F07E30D2B1F0F0DE26F
:10485000011F03070F0F8F87014B83F32522072AC0
:104860000C46143F07013A80131E7F78FCFEFF5A66
:1048700019490A1703F529F469013CE0E0FC3819ED
:104880004B413BE0FE471CE1E0E0ECC4C080801AF5
:10489000F05B4DFFFFBFDFAF1BFFFF3C19222A80FB
:1048A000291901497F012349624EC78383C3E3C7A6
:1048B00019C038087FFEFEFCFCF8F08B1EFF8F87C6
:1048C0000707EA18080F1F1F3F7FFFFE174AE08700
:1048D0001B03071329012E0F0F0701010E6A3F8BDF
:1048E000497D2BFFFF2DBAC0B501131A015D694840
:1048F000740703011A1F871A3F13291B8A0F2C3BC9
:10490000030F650A16F84C4B0103012A014849952B
:104910002A7FCE1AF88A0D1EE0C0C0808D0156296C
:104920009719E619CC19D502871E142010342330AC
:10493000201A040469A82C020304041009060708BD
:104940000902040608BB127A1C2918015C1AAA0184
:0400000508000131BD
:00000001FF
